:020000040800F2
:1000000000000220291D0008BD1B0008BF1B0008BE
:10001000C11B0008C31B0008C51B0008000000002E
:10002000000000000000000000000000C71B0008E6
:10003000C91B000800000000CB1B0008CD1B0008F6
:10004000791D0008791D0008791D0008791D000838
:10005000791D0008791D0008791D0008791D000828
:10006000791D0008791D0008791D0008791D000818
:10007000791D0008791D0008791D0008791D000808
:10008000791D0008791D0008791D0008791D0008F8
:10009000791D0008791D0008791D0008791D0008E8
:1000A000791D0008791D0008791D0008791D0008D8
:1000B000791D0008791D0008791D0008791D0008C8
:1000C000791D0008791D0008791D0008791D0008B8
:1000D000791D0008D51B0008791D0008791D00084E
:1000E000791D0008791D0008791D0008791D000898
:1000F000791D0008791D0008791D0008791D000888
:10010000791D0008791D0008791D0008791D000877
:10011000791D0008791D0008791D0008791D000867
:10012000791D0008791D0008791D0008791D000857
:10013000791D0008791D0008791D0008791D000847
:10014000791D0008791D0008791D0008791D000837
:10015000791D0008791D0008E51B0008791D0008BD
:10016000791D0008791D0008791D0008791D000817
:10017000791D0008791D0008791D000800000000A5
:08018000791D0008791D00083B
:1001880010B5054C237833B9044B13B10448AFF3C9
:1001980000800123237010BD3C04002000000000F3
:1001A800481F000808B5034B1BB103490348AFF3C8
:1001B800008008BD0000000040040020481F00081F
:1001C80053B94AB9002908BF00281CBF4FF0FF31B6
:1001D8004FF0FF3000F074B9ADF1080C6DE904CEB2
:1001E80000F006F8DDF804E0DDE9022304B070470A
:1001F8002DE9F047089E0D4604468846002B4DD150
:100208008A42944668D9B2FA82F252B101FA02F3EC
:10021800C2F1200120FA01F10CFA02FC41EA0308BC
:1002280094404FEA1C45210CB8FBF5FE1FFA8CF7E9
:1002380005FB1E8341EA03430EFB07F199420BD9E4
:100248001CEB03030EF1FF3080F01E81994240F24F
:100258001B81AEF1020E63445B1AA4B2B3FBF5F046
:1002680005FB103344EA034400FB07F7A7420AD909
:100278001CEB040400F1FF3380F00881A74240F230
:10028800058164440238E41B40EA0E4000211EB197
:10029800D4400023C6E90043BDE8F0878B4208D963
:1002A800002E00F0EE800021C6E900050846BDE8F2
:1002B800F087B3FA83F100294AD1AB4202D38242D4
:1002C80000F2F980841A65EB030301209846002E9A
:1002D800E2D0C6E90048DFE702B9FFDEB2FA82F2EF
:1002E800002A40F09180A1EB0C054FEA1C471FFA49
:1002F8008CFE0121B5FBF7F307FB1350250C45EAEB
:1003080000450EFB03F0A84208D91CEB050503F1D4
:10031800FF3802D2A84200F2CB8043462D1AA4B27D
:10032800B5FBF7F007FB105544EA05440EFB00FE49
:10033800A64508D91CEB040400F1FF3502D2A645F6
:1003480000F2BB802846A4EB0E0440EA03409EE777
:10035800C1F120078B4022FA07FC4CEA030C20FA73
:1003680007F405FA01F31C43FD404FEA1C4900FA63
:1003780001F3B5FBF9F8200C1FFA8CFE09FB1855A0
:1003880040EA054508FB0EF0A84202FA01F20BD933
:100398001CEB050508F1FF3A80F08880A84240F27E
:1003A8008580A8F1020865442D1AA4B2B5FBF9F0BE
:1003B80009FB105544EA054500FB0EFEAE4508D979
:1003C8001CEB050500F1FF346CD2AE456AD9023842
:1003D800654440EA0840A0FB0294A5EB0E05A5423F
:1003E800C846A64656D353D05EB1B3EB080265EBB8
:1003F8000E0505FA07F722FA01F3CD401F43C6E9B7
:1004080000750021BDE8F087C2F1200320FA03F14E
:100418000CFA02FC25FA03F395400D434FEA1C47FA
:100428001FFA8CFEB3FBF7F107FB11302B0C43EAE4
:10043800004301FB0EF0984204FA02F408D91CEBC1
:10044800030301F1FF382FD298422DD902396344B2
:100458001B1AADB2B3FBF7F007FB103345EA0345AF
:1004680000FB0EF3AB4208D91CEB050500F1FF3881
:1004780016D2AB4214D902386544ED1A40EA01415C
:1004880038E73146304607E78646E5E61846FAE695
:100498004B45A9D2B9EB020864EB0C0E0138A3E76F
:1004A8004046EAE7204694E74146D1E7D0467BE755
:1004B800023B654432E7084609E76444023842E7EC
:1004C800704700BF10B504460E4B18784FF47A7386
:1004D800B3FBF0F30C4A1068B0FBF3F000F09CF8A3
:1004E80068B90F2C01D901200AE0002221464FF0FB
:1004F800FF3000F04BF8054B1C60002000E00120A5
:1005080010BD00BF000000200800002004000020EB
:1005180008B50B4B1A6842F400721A601A6842F464
:1005280080621A601A6842F480721A60032000F030
:100538001BF80F20FFF7C6FF01F020FB002008BDC5
:10054800003C0240034A1168034B1B780B441360BC
:10055800704700BF5804002000000020014B1868B5
:10056800704700BF58040020074AD36823F4E063AB
:100578001B041B0C000200F4E060034343F0BF635C
:1005880043F40033D360704700ED00E000B5194B29
:10059800DB68C3F30223C3F1070CBCF1040F28BFC7
:1005A8004FF0040C03F1040EBEF1060F18D9033BFB
:1005B8004FF0FF3E0EFA0CFC21EA0C0199400EFAAE
:1005C80003F322EA0303194300280BDB0901C9B22C
:1005D80000F1604000F5614080F800135DF804FB0D
:1005E8000023E5E700F00F000901C9B2024B1954D6
:1005F800F4E700BF00ED00E014ED00E0002807DBA1
:1006080000F01F02400901239340024A42F82030BB
:10061800704700BF00E100E00138B0F1807F0BD2E5
:100628004FF0E0235861054AF02182F8231000209A
:10063800986107221A6170470120704700ED00E0B9
:1006480010B40368D9B210390B4AA2FB014212094F
:100658000A4CA25CC2655F2908D923F47F7323F092
:10066800030304338365806D10BC704723F47F73E4
:1006780023F003038365F6E7ABAAAAAA601F000864
:10068800836A826992B9012B0AD0022B02D00BB17E
:1006980000207047C36A13F0807F28D1002070477C
:1006A800C36AB3F1C07F24D000207047B2F5005F61
:1006B80009D0022B25D9032B25D1C36A13F0807FDB
:1006C80023D100207047032B03D8DFE803F014047C
:1006D800140A00207047C36A13F0807F0DD10020F0
:1006E8007047C36AB3F1C07F09D00020704701206A
:1006F8007047012070470120704701207047012092
:1007080070470120704700207047012070470000A3
:1007180070B50446FFF722FF002C5BD00546022384
:1007280084F83530002384F834302268136823F0C5
:100738000103136023681A6812F0010F0AD0FFF74B
:100748000DFF431B052BF5D920236365032084F88F
:10075800350070BD1A68204810406168A2680A43D5
:10076800E1680A4321690A4361690A43A1690A43A6
:10077800E1690A43216A0A430243616A04291ED0D7
:100788001A602668756925F00705636A1D43042BFE
:1007980007D1A36A1D43E36A1BB12046FFF770FF28
:1007A80090B975612046FFF74BFFE26D3F239340F8
:1007B800836000206065012384F83530C9E7E16A69
:1007C800206B01430A43DBE740236365012084F87B
:1007D8003500BEE70120BCE73F8010F070B5044645
:1007E800866DFFF7BBFE94F83530DBB2022B06D0DE
:1007F80080236365002384F83430012070BD0546EA
:100808002268136823F0160313602268536923F0E3
:1008180080035361236CE3B12268136823F0080353
:1008280013602268136823F00103136023681B68B0
:1008380013F0010F11D0FFF791FE431B052BF5D9DB
:1008480020236365032084F83500002384F83430BE
:10085800D4E7A36C002BDFD1E3E7E26D3F2393409D
:10086800B360012384F83530002084F83400C5E7EC
:1008780090F83530DBB2022B03D08023436501208A
:100888007047052380F835300268136823F00103A8
:100898001360002070470000F0B583B004460023C1
:1008A8000193724B1D68724BA3FB0535AD0A876D2A
:1008B8003E68C26D08239340334210D003681A681B
:1008C80012F0040F0BD01A6822F004021A60C26DED
:1008D80008239340BB60436D43F001034365E26D19
:1008E80001239340334209D02268526912F0800FE5
:1008F80004D0BB60636D43F002036365E26D0423BB
:100908009340334209D02268126812F0020F04D0D3
:10091800BB60636D43F004036365E26D102393408D
:10092800334224D02268126812F0080F1FD0BB602F
:1009380023681A6812F4802F0DD01B6813F4002F57
:1009480004D1236C9BB12046984710E0A36C73B187
:10095800204698470BE01A6812F4807F03D11A6882
:1009680022F008021A60236C0BB120469847E26D0A
:1009780020239340334255D02268126812F0100F9A
:1009880050D0BB6094F83530DBB2052B0ED023680D
:100998001A6812F4802F33D01B6813F4002F2AD161
:1009A800636C002B3ED0204698473BE022681368D2
:1009B80023F0160313602268536923F08003536100
:1009C800236CA3B12268136823F008031360E26D57
:1009D8003F239340BB60012384F83530002384F81B
:1009E8003430236D002B3FD0204698473CE0A36C61
:1009F800002BE7D1EBE7E36BA3B12046984711E062
:100A08001A6812F4807F09D11A6822F010021A605D
:100A1800012384F83530002384F83430E36B0BB1BC
:100A280020469847636DFBB1636D13F0010F17D033
:100A3800052384F835302268136823F00103136016
:100A4800019B01330193AB4204D823681B6813F060
:100A5800010FF5D1012384F83530002384F83430B0
:100A6800E36C0BB12046984703B0F0BD08000020A6
:100A7800B5814E1B00230F2B00F2E48070B582B0C5
:100A880060E085685E000324B44025EA0405CC686C
:100A9800B4402C438460456825EA02054C68C4F3D9
:100AA80000129A402A4342605AE0DC08083450F8A1
:100AB800246003F0070295000F22AA4026EA020EDE
:100AC8000A69AA4042EA0E0240F824205CE00722A4
:100AD80000E0002202FA0EF22A4302345A4D45F889
:100AE80024205A4A14686FEA0C0224EA0C054E685E
:100AF80016F4803F01D04CEA0405544C2560646824
:100B080002EA04054E6816F4003F01D04CEA0405D9
:100B18004E4C6560A46802EA04054E6816F4801F0E
:100B280001D04CEA0405494CA560E46822404D68B0
:100B380015F4001F01D04CEA0402444CE260013372
:100B48000F2B7DD801229A400C6804EA020C32EA85
:100B58000404F4D14C6804F00304013C012C90D93E
:100B68004A6802F00302032A09D0C4685D00032220
:100B7800AA4024EA02048A68AA402243C2604A685A
:100B880002F00302022A90D004684FEA430E0322BF
:100B980002FA0EF224EA02044A6802F0030202FA98
:100BA8000EF2224302604A6812F4403FC7D0002286
:100BB8000192274A546C44F480445464526C02F401
:100BC80080420192019A9C08A51C1F4A52F82550A0
:100BD80003F003024FEA820E0F2202FA0EF225EA10
:100BE80002051C4A90423FF474AF02F580629042BD
:100BF8001AD002F58062904218D002F580629042C5
:100C080016D002F58062904214D002F580629042BC
:100C180012D002F58062904210D002F580629042B4
:100C28003FF455AF082255E7012253E7022251E766
:100C380003224FE704224DE705224BE7062249E746
:100C480002B070BD704700BF00380140003C014051
:100C580000380240000002400AB18161704709046F
:100C680081617047436901EA030221EA030141EA0D
:100C78000241816170470000002800F0E08170B5F2
:100C880082B00446036813F0010F3BD09F4B9B686A
:100C980003F00C03042B2CD09C4B9B6803F00C0333
:100CA800082B21D06368B3F5803F4FD0B3F5A02F50
:100CB80052D0964B1A6822F480321A601A6822F4CD
:100CC80080221A606368002B50D0FFF747FC054666
:100CD8008E4B1B6813F4003F14D1FFF73FFC401BF9
:100CE8006428F5D90320B1E1884B5B6813F4800FC1
:100CF800D8D0864B1B6813F4003F03D06368002BE1
:100D080000F09F81236813F0020F54D07F4B9B683B
:100D180013F00C0F3ED07D4B9B6803F00C03082B9F
:100D280033D0E368002B68D0794B01221A60FFF7B3
:100D380015FC0546754B1B6813F0020F54D1FFF7DD
:100D48000DFC401B0228F5D903207FE16F4A136888
:100D580043F480331360B5E76C4B1A6842F4802281
:100D68001A601A6842F480321A60ABE7FFF7F6FBA4
:100D78000546664B1B6813F4003FC3D0FFF7EEFB34
:100D8800401B6428F5D9032060E1604B5B6813F4CD
:100D9800800FC6D15D4B1B6813F0020F03D0E368C8
:100DA800012B40F05081594A136823F0F803216958
:100DB80043EAC1031360236813F0080F42D0636944
:100DC8006BB3534B0122C3F8802EFFF7C7FB0546D0
:100DD8004E4B5B6F13F0020F34D1FFF7BFFB401B84
:100DE8000228F5D9032031E1484A136823F0F803B3
:100DF800216943EAC1031360DDE7454B00221A600D
:100E0800FFF7ACFB0546414B1B6813F0020FD2D02D
:100E1800FFF7A4FB401B0228F5D9032016E13C4B41
:100E28000022C3F8802EFFF799FB0546374B5B6F0E
:100E380013F0020F06D0FFF791FB401B0228F5D9EB
:100E4800032003E1236813F0040F77D02F4B1B6CAA
:100E580013F0805F33D1002301932C4B1A6C42F0BE
:100E680080521A641B6C03F080530193019B012587
:100E7800284B1B6813F4807F23D0A368012B34D040
:100E8800052B38D0214B1A6F22F001021A671A6F0E
:100E980022F004021A67A368002B3DD0FFF75EFB1F
:100EA80006461A4B1B6F13F0020F46D1FFF756FB8D
:100EB800801B41F288339842F3D90320C6E000250D
:100EC800D6E7144A136843F480731360FFF746FBB0
:100ED8000646104B1B6813F4807FCED1FFF73EFB0C
:100EE800801B0228F5D90320B0E0084A136F43F0AD
:100EF80001031367CFE7054B1A6F42F004021A6724
:100F08001A6F42F001021A67C5E700BF00380240B5
:100F18000000474200700040FFF720FB0646524B96
:100F28001B6F13F0020F08D0FFF718FB801B41F26C
:100F380088339842F3D9032088E0EDB9A369002BE0
:100F480000F08380484A926802F00C02082A51D0C7
:100F5800022B17D0454B00221A66FFF7FFFA04460A
:100F6800414B1B6813F0007F42D0FFF7F7FA001BD4
:100F78000228F5D9032069E03B4A136C23F080531B
:100F88001364DBE7394B00221A66FFF7E7FA0546D8
:100F9800354B1B6813F0007F06D0FFF7DFFA401BC4
:100FA8000228F5D9032051E0E369226A1343626AF3
:100FB80043EA8213A26A5208013A43EA0243E26A08
:100FC80043EA0263284A5360284B01221A66FFF756
:100FD800C5FA0446244B1B6813F0007F06D1FFF7BF
:100FE800BDFA001B0228F5D903202FE000202DE0D0
:100FF80000202BE0012B2BD01B4B5B6803F48001F6
:10100800E269914226D103F03F02216A8A4223D144
:10101800616A47F6C0721A40B2EB811F1ED103F411
:101028004031A26A5208013AB1EB024F18D103F0DD
:101038007063E26AB3EB026F14D1002006E001206E
:101048007047012002E0012000E0002002B070BDDE
:101058000120FBE70120F9E70120F7E70120F5E788
:101068000120F3E70120F1E7003802400000474281
:1010780008B5254B9B6803F00C03042B3FD0082BC5
:101088003FD1214B5A6802F03F025B6813F4800F8E
:1010980012D01D4B5968C1F388111C480023A1FBCD
:1010A8000001FFF78DF8184B5B68C3F30143013368
:1010B8005B00B0FBF3F025E0134B5968C1F3881CC3
:1010C8004FEA4C11B1EB0C006EEB0E0E4FEA8E138B
:1010D80043EA90638101091A63EB0E03DB0043EADC
:1010E8005173C90011EB0C0C43F100039902002362
:1010F8004FEA8C2041EA9C51FFF762F8D3E7034896
:1011080000E0034808BD00BF00380240001BB700DC
:101118000024F400002800F09B8070B50D460446BA
:101128004F4B1B6803F007038B4208D2CBB24C4AE3
:101138001370136803F007038B4240F08B80236819
:1011480013F0020F17D013F0040F04D0454A936828
:1011580043F4E0539360236813F0080F04D0414A26
:10116800936843F4604393603E4A936823F0F00326
:10117800A1680B439360236813F0010F32D06368B2
:10118800012B21D09A1E012A25D9364A126812F05D
:10119800020F61D033498A6822F0030213438B603F
:1011A800FFF7DCF906462F4B9B6803F00C036268D7
:1011B800B3EB820F16D0FFF7D1F9801B41F28833C9
:1011C8009842F0D9032042E0264A126812F4003F00
:1011D800E0D101203BE0234A126812F0007FD9D108
:1011E800012034E01E4B1B6803F00703AB4207D90C
:1011F800EAB21B4B1A701B6803F00703AB422DD1F0
:10120800236813F0040F06D0164A936823F4E053BA
:10121800E1680B439360236813F0080F07D0114A65
:10122800936823F46043216943EAC1039360FFF79D
:101238001FFF0C4B9B68C3F303130B4AD35CD840C6
:101248000A4B18600A4B1868FFF73CF9002070BD7C
:10125800012070470120FAE70120F8E70120F6E7AE
:10126800003C024000380240681F000808000020C7
:1012780004000020014B1868704700BF08000020D8
:1012880008B5FFF7F7FF044B9B68C3F38223034AB3
:10129800D35CD84008BD00BF00380240781F000862
:1012A80008B5FFF7E7FF044B9B68C3F34233034AD3
:1012B800D35CD84008BD00BF00380240781F000842
:1012C800026802F10C0353E8003F23F490730C32D8
:1012D80042E800310029F3D1026802F1140353E80F
:1012E800003F23F00103143242E800310029F3D112
:1012F800036B012B05D0202380F83E3000230363C5
:101308007047026802F10C0353E8003F23F0100312
:101318000C3242E800310029F3D1ECE790F83D3077
:10132800DBB2212B01D0022070478368B3F5805FC0
:1013380017D0036A5A1C02621A7803685A60C38C71
:101348009BB2013B9BB2C3844BB90268D36823F0BC
:101358008003D3600268D36843F04003D360002061
:1013680070470369002BE4D1036A1B880268C3F342
:1013780008035360036A02330362E0E738B50446A2
:101388000268136923F44053C1680B4313618368EF
:101398000269134342691343C2691A430168CB685F
:1013A80023F4164323F00C031343CB6002685369FC
:1013B80023F4407381690B4353610368314A9342B4
:1013C80006D002F58062934202D0FFF759FF01E090
:1013D800FFF766FFE369B3F5004F29D00021031832
:1013E80049411B1841F10001C90041EA5371DB0072
:1013F800181863684FEA83024FEA937341F10001BA
:10140800FEF7DEFE204DA5FB00325109642303FBE5
:1014180011031B013233A5FB03235B0903F0F00220
:1014280002EB011203F00F03216813448B6038BDEF
:101438000023021843EB0301121841F10001C9000F
:1014480041EA5271D200101841F100016268921805
:101458005B41FEF7B5FE0C4DA5FB00325109642334
:1014680003FB1103DB003233A5FB03235B095A009E
:1014780002F4F87202EB011203F007032168134427
:101488008B60D4E7001001401F85EB5158B310B5AD
:10149800044690F83D300BB3242384F83D3022688D
:1014A800D36823F40053D3602046FFF767FF226810
:1014B800136923F4904313612268536923F02A03C4
:1014C80053612268D36843F40053D360002020643A
:1014D800202384F83D3084F83E3010BD80F83C303D
:1014E80000F0A2FBD8E701207047704708B50168F3
:1014F800CA6822F04002CA60202280F83D20FFF727
:10150800F4FF002008BD7047704708B5806B0023C2
:10151800C385C384FFF7F8FF08BD704790F83E30D5
:10152800DBB2222B67D18368B3F5805F4DD0826A26
:10153800B3F5805F04D0002B54D10369002B51D13F
:1015480003685B681370836A01338362C38D9BB23F
:10155800013B9BB2C385002B4FD100B583B0026815
:10156800D36823F02003D3600268D36823F4807320
:10157800D3600268536923F001035361202380F884
:101588003E30036B012B33D100230363026802F161
:101598000C0353E8003F23F010030C3242E80031FB
:1015A8000029F3D103681A6812F0100F06D0002240
:1015B80001921A6801925B680193019B818DFFF784
:1015C800ACFF002003B05DF804FB0269002AAED12D
:1015D800826A03685B68C3F308031380836A023373
:1015E8008362B3E703685B6803F07F031370AAE7BD
:1015F800FFF789FFE5E702207047002070470000E9
:1016080030B583B0044602681368D068516913F096
:101618000F0505D113F0200F02D010F0200F19D1BB
:101628002DB111F0010119D110F4907F16D1216B61
:1016380001297DD013F0800F03D010F0800F40F007
:10164800158113F0400F03D010F0400F40F01281C5
:1016580003B030BD2046FFF761FFF9E713F0010F33
:1016680006D010F4807F03D0226C42F0010222647D
:1016780013F0040F04D019B1226C42F00202226464
:1016880013F0020F04D019B1226C42F00402226454
:1016980013F0080F07D010F0200F00D119B1226CF9
:1016A80042F008022264226C002AD1D013F0200FE5
:1016B80002D010F0200F29D123685B6903F04003A2
:1016C800226C12F0080F00D163B32046FFF7F8FD33
:1016D80023685B6913F0400F20D0226802F11403DD
:1016E80053E8003F23F04003143242E80031002958
:1016F800F3D1A36B73B1614A1A65A06BFFF7B8F811
:101708000028A5D0A06B036D9847A1E72046FFF7F6
:1017180005FFD1E72046FFF7F7FE99E72046FFF7D8
:10172800F3FE95E72046FFF7EFFE002323648FE7DB
:1017380013F0100F3FF47EAF10F0100F3FF47AAFA4
:10174800002301931368019353680193019B536924
:1017580013F0400F50D0A26B13685B689BB2002B4C
:101768003FF476AFA18D99427FF672AFE385D369D6
:10177800B3F5807F37D0226802F10C0353E8003FAD
:1017880023F480730C3242E800310029F3D1226837
:1017980002F1140353E8003F23F00103143242E836
:1017A80000310029F3D1226802F1140353E8003F05
:1017B80023F04003143242E800310029F3D12023FA
:1017C80084F83E3000232363226802F10C0353E8B7
:1017D800003F23F010030C3242E800310029F3D116
:1017E800A06BFEF7FBFFA18DE38D9BB2C91A89B2EE
:1017F8002046FFF792FE2BE7A18DE38D9BB2C91A15
:1018080089B2E38D9BB2002B3FF422AF00293FF44D
:101818001FAF226802F10C0353E8003F23F49073D2
:101828000C3242E800300028F3D1226802F1140398
:1018380053E8003F23F00103143242E80030002847
:10184800F3D1202384F83E3000232363226802F179
:101858000C0353E8003F23F010030C3242E8003039
:101868000028F3D12046FFF758FEF1E62046FFF79F
:1018780055FDEDE62046FFF739FEE9E613150008A9
:10188800034B1A68536943F080035361704700BFE4
:10189800E004002010B5304B1A68136823F00103E8
:1018A800136003E01A6822F001021A602A4B1B68D1
:1018B8001A6812F0010FF5D1284A9A6002F5AA3287
:1018C800543293421CD9583A4FF00064D460244AE9
:1018D80093422BD9583A4FF08064D460D86059604D
:1018E800204A11684A6942F080024A611A6842F047
:1018F80001021A604FF480511B48FFF7B3F910BD7D
:101908001A4A934205D902F552724FF00064946066
:10191800DDE7174A934204D9583A4FF00064D4607F
:10192800D5E7144A4FF000649460D0E70F4A934219
:1019380005D902F552724FF080649460CEE70C4AE4
:10194800934204D9583A4FF08064D460C6E7094AF4
:101958004FF080649460C1E78004002004100140C7
:1019680058640240E0040020001C0240B8600240B5
:10197800586002400060024030B505468E464FF080
:10198800000C4FF0FF3017E0104C84EA400006E0EE
:10199800520801331F2B0DD80028F5DB40000A42FE
:1019A800F6D080F0986080F48E3080F4DB7080F0A0
:1019B8000100EDE70CF1010CF44505D255F82C10A7
:1019C80000234FF00042E5E730BD00BFB71DC1045A
:1019D80010B5084C2171A070FE232370EE236370AC
:1019E80007212046FFF7C8FF206222212046FFF783
:1019F80051FF10BD5C04002000B583B000210191A7
:101A0800094B1A6B42F480021A631B6B03F48003C0
:101A18000193019B0A464620FEF7B8FD4620FEF7D3
:101A2800EDFD03B05DF804FB0038024030B589B025
:101A38000024039404940594069407940094194B85
:101A48001A6B42F001021A631A6B02F0010200924B
:101A5800009A01941A6B42F002021A631A6B02F0A0
:101A680002020192019A02941A6B42F080021A63F0
:101A78001B6B03F080030293029B0B4D22464FF42D
:101A880080512846FFF7E8F84FF480530393012369
:101A980004930594069403A92846FEF7EBFF09B0C2
:101AA80030BD00BF00380240001C024072B6FEE79D
:101AB80000B595B03022002108A800F07FF9002376
:101AC800039304930593069307930193204A116C9B
:101AD80041F080511164126C02F080520192019A17
:101AE80002931C4B1A6842F480421A601B6803F484
:101AF80080430293029B012308934FF48033099398
:101B080002230E934FF480020F9206221092A8220D
:101B1800119212930423139308A8FFF7ADF898B90C
:101B28000F23039302230493002305934FF4A05338
:101B380006934FF480530793052103A8FFF7EAFAA9
:101B480020B915B05DF804FBFFF7B0FFFFF7AEFF53
:101B5800003802400070004008B5FEF7D9FCFFF7D6
:101B6800A7FFFFF763FFFFF747FF00F041F8FFF714
:101B780087FE05210120FFF72BFFFAE782B000213D
:101B880000910B4B5A6C42F480425A645A6C02F42E
:101B980080420092009A01911A6C42F080521A64B5
:101BA8001B6C03F080530193019B02B0704700BF88
:101BB80000380240FEE7FEE7FEE7FEE7FEE7704773
:101BC8007047704708B5FEF7BDFC08BD08B5024868
:101BD800FFF716FD08BD00BFE004002008B5024865
:101BE800FEF75AFE08BD00BF8004002070470000C1
:101BF80008B50A480A4B03600A4B43600023836018
:101C0800C36003610C2242618361C361FFF73EFC3C
:101C180000B908BDFFF74AFFFBE700BFE00400205A
:101C280000100140003E49002DE9F04188B0002332
:101C380003930493059306930793026803F1804383
:101C480003F588339A4202D008B0BDE8F081044613
:101C58000025009503F594335A6C42F010025A643B
:101C68005A6C02F010020092009A01951A6B42F029
:101C780002021A631A6B02F002020192019A02959B
:101C88001A6B42F001021A631B6B03F00103029303
:101C9800029B802303934FF00208CDF8108003279E
:101CA80006970726079603A91948FEF7E3FE4FF49F
:101CB80000730393CDF8108005950697079603A93E
:101CC8001448FEF7D7FE1448144B03604FF0006326
:101CD800436040238360C5604FF4806303614561BE
:101CE8008561C5614FF4403303624562FEF710FD1C
:101CF80058B9094B63639C63002211462520FEF7FF
:101D080045FC2520FEF77AFC9EE7FFF7CFFEF0E7BB
:101D1800000402400000024080040020B864024031
:101D2800DFF834D00D480E490E4A002302E0D4589B
:101D3800C4500433C4188C42F9D30B4A0B4C00230B
:101D480001E013600432A242FBD3FFF74FFF00F01B
:101D580011F8FFF701FF7047000002200000002083
:101D68003C040020981F00083C040020280500209F
:101D7800FEE7000070B50D4E0D4D761BB61006D06F
:101D8800002455F8043B01349847A642F9D1094E7E
:101D9800094D761B00F0D4F8B61006D0002455F88B
:101DA800043B01349847A642F9D170BD8C1F000846
:101DB8008C1F0008941F00088C1F0008830730B58B
:101DC80048D0541E002A3FD0CAB2034601E0013C65
:101DD8003AD303F8012B9D07F9D1032C2DD9CDB2A5
:101DE80045EA05250F2C45EA054536D9A4F1100228
:101DF80022F00F0C03F1200EE6444FEA121C03F107
:101E0800100242E9045542E9025510327245F8D1F0
:101E18000CF1010214F00C0F03EB021204F00F0C8A
:101E280013D0ACF1040323F003030433134442F842
:101E3800045B9342FBD10CF003042CB1CAB21C44DE
:101E480003F8012B9C42FBD130BD64461346002C9D
:101E5800F4D1F9E703461446BFE71A46A446E0E77B
:101E6800024B13B1024800F005B8704700000000AB
:101E7800891E0008002301461A46184600F01AB8C1
:101E880038B5084B084D5B1B9C1007D0043B1D441C
:101E9800013C55F804399847002CF9D1BDE8384081
:101EA80000F054B8981F0008941F0008704700BF3E
:101EB800704700BF2DE9F047DFF87CA00646DAF846
:101EC800000098460F469146FFF7F0FF1B4B1B6832
:101ED800D3F8484124B365681F2D26DC5EB96B1C16
:101EE8000235DAF80000636044F82570FFF7E0FF78
:101EF8000020BDE8F08704EB85010123C1F8889034
:101F0800D4F88821AB401A43022EC4F88821C1F8BE
:101F18000881E4D1D4F88C211343C4F88C31DEE76E
:101F280003F5A674C3F84841D5E7DAF80000FFF7CF
:101F3800BFFF4FF0FF30DCE738040020801F0008A7
:101F4800F8B500BFF8BC08BC9E467047F8B500BF9E
:081F5800F8BC08BC9E4670476E
:101F60000006101600061016000000000000000019
:101F7000010203040607080900000000010203042F
:041F8000100000202D
:081F840074E2FF7F0100000080
:081F8C00691E0008AD01000808
:041F940089010008B7
:101F980001000000100000000024F4000000000010
:101FA80000000000FC02002064030020CC03002095
:101FB8000000000000000000000000000000000019
:101FC8000000000000000000000000000000000009
:101FD80000000000000000000000000000000000F9
:101FE80000000000000000000000000000000000E9
:101FF80000000000000000000000000000000000D9
:1020080000000000000000000000000000000000C8
:1020180000000000000000000000000000000000B8
:1020280000000000000000000000000000000000A8
:102038000000000000000000000000000000000098
:102048000000000000000000010000000000000087
:102058000E33CDAB34126DE6ECDE05000B0000004C
:102068000000000000000000000000000000000068
:102078000000000000000000000000000000000058
:102088000000000000000000000000000000000048
:102098000000000000000000000000000000000038
:0C23C800000000000000000024050020C0
:0400000508001D29A9
:00000001FF
